:020000040000FA
:100000000C9463000C948B000C948B000C948B006C
:100010000C948B000C948B000C948B000C948B0034
:100020000C948B000C948B000C948B000C940F0799
:100030000C948B000C948B000C948B000C948B0014
:100040000C946D060C948B000C94DD060C94B70692
:100050000C948B000C948B000C948B000C948B00F4
:100060000C948B000C948B000000000024002700EF
:100070002A0000000000250028002B0000000000DE
:1000800023002600290004040404040404040202DA
:100090000202020203030303030301020408102007
:1000A0004080010204081020010204081020000012
:1000B0000008000201000003040700000000000027
:1000C0000000CB073E0C11241FBECFEFD8E0DEBFEF
:1000D000CDBF12E0A0E0B1E0EEE5FEE102C0059088
:1000E0000D92A033B107D9F723E0A0E3B2E001C03D
:1000F0001D92A939B207E1F710E0C2E6D0E004C0D2
:100100002197FE010E94210DC136D107C9F70E9437
:10011000C5080C94220F0C94000096E0899FD00132
:100120001124A65EBC4F90967C936E935F9791E0EE
:1001300091969C939197E0918703F0918803909119
:100140008603992339F0309751F0811108C08091CE
:1001500036030994309719F05C968C91FACF089584
:10016000CF92DF92EF92FF920F931F9396E0899FB9
:10017000F0011124E65EFC4F11A2278D30A1213041
:10018000310551F178F02230310509F451C02330A6
:10019000310509F452C01F910F91FF90EF90DF904D
:1001A000CF9008956623B9F361E070E00E948D005E
:1001B0002FB7F8948091360290913702A0913802BF
:1001C000B09139022FBF8093720390937303A09371
:1001D0007403B0937503DFCF9FB7F894C0903602D5
:1001E000D0903702E0903802F09039029FBF009122
:1001F0007203109173032091740330917503C01A38
:10020000D10AE20AF30A009184031091850330E0D9
:1002100020E00C151D052E053F0550F462E070E04E
:100220001F910F91FF90EF90DF90CF900C948D0075
:100230006111B1CF63E070E0F3CF70E060E0F0CF28
:10024000833081F028F4813099F08230A9F008954C
:100250008730A9F08830C9F08430B1F480918000F3
:100260008F7D03C0809180008F77809380000895F8
:1002700084B58F7784BD089584B58F7DFBCF809141
:10028000B0008F778093B00008958091B0008F7D8B
:10029000F9CFCF93DF93282F30E0F901E255FF4FDC
:1002A0008491F901E656FF4FD491F901EA57FF4FC7
:1002B000C491CC23A1F081110E942001EC2FF0E029
:1002C000EE0FFF1FE458FF4FA591B491EC91ED2381
:1002D00081E090E009F480E0DF91CF91089580E023
:1002E00090E0FACF1F93CF93DF93282F30E0F901EE
:1002F000E255FF4F8491F901E656FF4FD491F90181
:10030000EA57FF4FC491CC23A9F0162F81110E9408
:100310002001EC2FF0E0EE0FFF1FEE58FF4FA591EC
:10032000B4918FB7F894EC91111108C0D095DE23E9
:10033000DC938FBFDF91CF911F910895DE2BF8CF13
:10034000CF93DF9390E0FC01E656FF4F24918A574C
:100350009F4FFC0184918823C9F090E0880F991F7A
:10036000FC01E859FF4FA591B491FC01EE58FF4FF5
:10037000C591D49161110DC09FB7F8948C912095CF
:1003800082238C938881282328839FBFDF91CF917C
:100390000895623051F49FB7F8943C91822F809574
:1003A00083238C93E8812E2BEFCF8FB7F894EC91B9
:1003B0002E2B2C938FBFEACF3FB7F8948091320257
:1003C00090913302A0913402B091350226B5A89BDA
:1003D00005C02F3F19F00196A11DB11D3FBFBA2FD7
:1003E000A92F982F8827BC01CD01620F711D811D97
:1003F000911D42E0660F771F881F991F4A95D1F71C
:1004000008958F929F92AF92BF92CF92DF92EF9218
:10041000FF924B015C010E94DC016B017C010E9498
:10042000DC016C197D098E099F09683E73408105C6
:100430009105A8F321E0821A9108A108B10888EE7D
:10044000C80E83E0D81EE11CF11C81149104A104A4
:10045000B10429F7FF90EF90DF90CF90BF90AF905D
:100460009F908F900895862F642F0C94A001862F63
:10047000642F0C947201862F0C944901AF92BF92A5
:10048000CF92DF92EF92FF920F931F93CF93DF9360
:100490006C017B018B01040F151FEB015E01AE188F
:1004A000BF08C017D10759F06991D601ED91FC91B1
:1004B0000190F081E02DC6010995892B79F7C501DE
:1004C000DF91CF911F910F91FF90EF90DF90CF9030
:1004D000BF90AF900895FC01538D448D252F30E0DF
:1004E000842F90E0821B930B541710F0CF96089541
:1004F00001970895FC01918D828D981761F0A28D6E
:10050000AE0FBF2FB11D5D968C91928D9F5F9F7333
:10051000928F90E008958FEF9FEF0895FC01918DE9
:10052000828D981731F0828DE80FF11D858D90E056
:1005300008958FEF9FEF0895FC01918D228D892FF3
:1005400090E0805C9F4F821B91098F7399270895DB
:100550008AE392E00E949C0221E0892B09F420E0CA
:10056000822F089580E090E0892B29F00E94A80254
:1005700081110C9400000895FC01A48DA80FB92FDF
:10058000B11DA35ABF4F2C91848D90E001968F73BB
:100590009927848FA689B7892C93A089B1898C91DA
:1005A000837080648C93938D848D981306C0028829
:1005B000F389E02D80818F7D80830895EF92FF92F3
:1005C0000F931F93CF93DF93EC0181E0888F9B8D76
:1005D0008C8D98131AC0E889F989808185FF15C030
:1005E0009FB7F894EE89FF896083E889F989808153
:1005F0008370806480839FBF81E090E0DF91CF9122
:100600001F910F91FF90EF900895F62E0B8D10E043
:100610000F5F1F4F0F731127E02E8C8D8E110CC0B2
:100620000FB607FCFACFE889F989808185FFF5CFFD
:10063000CE010E94BC02F1CFEB8DEC0FFD2FF11D1E
:10064000E35AFF4FF0829FB7F8940B8FEA89FB893A
:1006500080818062CFCFCF93DF93EC01888D882398
:10066000B9F0AA89BB89E889F9898C9185FD03C015
:10067000808186FD0DC00FB607FCF7CF8C9185FFFA
:10068000F2CF808185FFEDCFCE010E94BC02E9CF81
:10069000DF91CF9108958F929F92AF92BF92FF9278
:1006A0000F931F93CF93DF93FC01F0808BE08F15A6
:1006B00008F44AC0828108E512E0081B110987FD91
:1006C0001395000F111F000F111F8181C8E8D0E0A2
:1006D000C81BD10987FDD395CC0FDD1FCC0FDD1FC3
:1006E0004E010D2E000CAA08BB089801012E000C2B
:1006F000440B550B281939094A095B09DB010E9493
:10070000A50C24EB30E040E050E00E947B0C820E10
:10071000931EA41EB51E8C169D062CF0E8018016B3
:1007200091060CF4E4012297CC0FDD1F2FB7F8944B
:100730008F2D90E0FC01EE0FFF1FE80FF91FE9522B
:10074000FD4FD283C1832FBFDF91CF911F910F91B6
:10075000FF90BF90AF909F908F9008951F93CF937D
:10076000DF93EC01162F88818C3008F04EC061E0D9
:10077000812F0E94A0018881282F30E0F901EE0F1F
:10078000FF1FE20FF31FE952FD4F1F736081607C72
:10079000612B608319821A822CE0622F0E94150D52
:1007A000829FB001112430E020E0AB01420F531FC3
:1007B000FA01EE0FFF1FE40FF51FE952FD4F908184
:1007C00096FD16C02F5F3F4F2C30310571F7811118
:1007D0000FC01092800082E080938100109285000B
:1007E00010928400B19A80916F00826080936F00B4
:1007F000E8818E2F90E0FC01EE0FFF1FE80FF91F3C
:10080000E952FD4F8081806480838881DF91CF91A0
:100810001F910895089590E080E00895CF93DF93AD
:10082000EC0160E08E810E94720161E08E810E9485
:10083000720160E08E810E9472018BE891E0019765
:10084000F1F7DF91CF910895CF92DF92EF92FF926F
:100850000F931F93CF93DF936C017C0187E0E80E29
:10086000F11CD0E0C0E0062F10E0B8010C2E02C051
:10087000759567950A94E2F76170F70181917F01A0
:100880000E9472012196C430D10579F7C601DF912B
:10089000CF911F910F91FF90EF90DF90CF900C942C
:1008A0000E04CF92DF92EF92FF920F931F93CF939C
:1008B000DF93EC01F62E642F8C810E9472018D81F2
:1008C0008F3F19F060E00E9472010F2D10E08F85BC
:1008D00084FF25C06E0187E0C80ED11CF12CE12CED
:1008E000B8010E2C02C0759567950A94E2F7617005
:1008F000F60181916F010E947201FFEFEF1AFF0A6A
:1009000088E0E816F10461F7CE01DF91CF911F91E5
:100910000F91FF90EF90DF90CF900C940E04B801F0
:1009200084E0759567958A95E1F7CE010E942404CD
:100930006F2DCE01DF91CF911F910F91FF90EF901E
:10094000DF90CF900C94240440E0682F82E093E085
:100950000C94510481E00E94A4048BE39FE1019771
:10096000F1F70895CF93DF93823029F4909111032A
:10097000986090931103809315031092160380E4FE
:100980008093170380E18093180380E58093190317
:1009900061E0809106030E94A001809107038F3FD0
:1009A00019F061E00E94A00161E0809108030E94BB
:1009B000A001C2E0D3E09E01225033408091110398
:1009C00084FD0BC084E090E021962817390744F499
:1009D00061E08E810E94A001EECF88E090E0F4CF2C
:1009E0008BE39DE00197F1F760E0809106030E94A0
:1009F000720160E0809108030E94720180910703F8
:100A00008F3F19F060E00E9472018091110384FD14
:100A100034C063E082E093E00E942404CBE4D6E497
:100A2000CE010197F1F763E082E093E00E94240495
:100A30002197F1F763E082E093E00E94240483E5CC
:100A400092E00197F1F762E082E093E00E942404D3
:100A50008091110380620E94A40484E080931203B9
:100A60008CE00E94A4040E94AA0482E080931303F5
:100A700086E0DF91CF910C94A40480620E94A404CC
:100A80008BE496E40197F1F78091110380620E9454
:100A9000A40483E592E00197F1F78091110380624D
:100AA0000E94A404D5CF643008F063E09091150350
:100AB000691710F06FEF690FE62FF0E0EE5FFC4F63
:100AC0009489890F80680C94A4041F93CF93DF93BB
:100AD000EC01162F0E94AA042C813D8180E190E058
:100AE000821B930B96958795612F0E9453054C812D
:100AF0005D816881798182E093E0DF91CF911F91E0
:100B00000C943E0241E00E94510481E090E008957F
:100B1000FC0101900020E9F73197AF01481B590B08
:100B2000BC018AE392E00C943E02CF93DF930E94D3
:100B30008805EC0186E491E00E9488058C0F9D1FDA
:100B4000DF91CF9108950F931F93CF93DF93EC0123
:100B500088819981009759F02A813B8126173707B0
:100B600030F081E0DF91CF911F910F9108958B01BB
:100B70006F5F7F4F0E944C0E009759F099838883D6
:100B80001B830A832C813D81232B59F7FC011082A2
:100B9000E8CF80E0E7CFEF92FF920F931F93CF93C0
:100BA000DF936115710541F480E0DF91CF911F91D2
:100BB0000F91FF90EF90089541155105B1F07B0121
:100BC000EC010C811D81040F151FB8010E94A305C3
:100BD000882351F3288139818C819D81B701820F4F
:100BE000931F0E941B0F1D830C8381E0DECFCF93E8
:100BF000DF93EC0188819981009711F00E94C30D69
:100C0000198218821D821C821B821A82DF91CF9169
:100C10000895EF92FF920F931F93CF93DF938C0170
:100C20007B01EB0109900020E9F72197C61BD70B48
:100C3000BE010E94A305811109C0C801DF91CF91B7
:100C40001F910F91FF90EF900C94F705F801D58359
:100C5000C483B70180819181DF91CF911F910F9162
:100C6000FF90EF900C941B0FEF92FF920F931F9346
:100C7000CF93DF93EC017B01198218821B821A82C9
:100C80001D821C82FB0101900020E9F731978F0142
:100C9000061B170BB8010E94A305811109C0CE01E4
:100CA000DF91CF911F910F91FF90EF900C94F7057A
:100CB0001D830C83B70188819981DF91CF911F91AA
:100CC0000F91FF90EF900C941B0FFC01808191819C
:100CD000009711F00C94C30D08951F920F920FB658
:100CE0000F9211242F933F938F939F93AF93BF93B2
:100CF0008091360290913702A0913802B09139026A
:100D00003091310223E0230F2D3758F50196A11DB4
:100D1000B11D209331028093360290933702A09345
:100D20003802B09339028091320290913302A0913F
:100D30003402B09135020196A11DB11D809332029B
:100D400090933302A0933402B0933502BF91AF91D8
:100D50009F918F913F912F910F900FBE0F901F90F9
:100D6000189526E8230F0296A11DB11DD2CF1F9220
:100D70000F920FB60F9211242F933F934F935F93CF
:100D80006F937F938F939F93AF93BF93EF93FF9353
:100D90008AE392E00E94BC02FF91EF91BF91AF9174
:100DA0009F918F917F916F915F914F913F912F9183
:100DB0000F900FBE0F901F9018951F920F920FB6B5
:100DC0000F9211242F938F939F93EF93FF93E091B2
:100DD0004A02F0914B028081E0915002F091510261
:100DE00082FD1BC09081809153028F5F8F73209191
:100DF0005402821741F0E0915302F0E0E65CFD4FAF
:100E0000958F80935302FF91EF919F918F912F9136
:100E10000F900FBE0F901F9018958081F4CF1F92F6
:100E20000F920FB60F9211242F933F934F935F931E
:100E30006F937F938F939F93AF93BF93CF93DF93E2
:100E4000EF93FF9380913002C091FB02D0E087FFC7
:100E500024C01092850010928400809130028F5F30
:100E60008093300280913002082E000C990B8C1771
:100E70009D0724F4809130028C30C4F1809184006D
:100E800090918500049680349C4908F47AC0809142
:100E9000840090918500049676C080913002082EDF
:100EA000000C990B8C179D07C4F6E09130028E2F31
:100EB000EE0F990BFC01EE0FFF1FE80FF91FE9522F
:100EC000FD4F808186FFC9CFE09130028E2FEE0F5B
:100ED000990BFC01EE0FFF1FE80FF91FE952FD4FC0
:100EE000808160E08F730E947201B7CF20918400EF
:100EF00030918500E09130028E2FEE0F990BFC01AE
:100F0000EE0FFF1FE80FF91FE952FD4F818192811B
:100F1000820F931F9093890080938800E0913002A4
:100F20008E2FEE0F990BFC01EE0FFF1FE80FF91F3C
:100F3000E952FD4F808186FF11C0E09130028E2F73
:100F4000EE0F990BFC01EE0FFF1FE80FF91FE9529E
:100F5000FD4F808161E08F730E947201FF91EF91DC
:100F6000DF91CF91BF91AF919F918F917F916F91C1
:100F70005F914F913F912F910F900FBE0F901F9057
:100F8000189580E49CE990938900809388008FEF06
:100F900080933002E3CFCF9310923D0210923C0237
:100FA00088EE93E0A0E0B0E080933E0290933F0291
:100FB000A0934002B093410282E291E090933B0201
:100FC00080933A0285EC90E090934702809346022A
:100FD00084EC90E0909349028093480280EC90E08A
:100FE00090934B0280934A0281EC90E090934D02E3
:100FF00080934C0282EC90E090934F0280934E02DB
:1010000086EC90E09093510280935002109253022C
:1010100010925402109255021092560269E471E047
:101020008FE893E00E94340668E471E089E893E079
:101030000E94340610921C031092200310921F038A
:101040001092210380E491E090931B0380931A0394
:10105000E6E3F3E01082148213821582369683E071
:10106000E237F807B9F784E091E090937D0380932D
:101070007C0380E091E090937F0380937E0384E083
:10108000809380038093810388E091E090937B03B9
:1010900080937A038AE090E09093830380938203A5
:1010A00084EF91E0909385038093840310928803EA
:1010B00010928703109276031092770310927803B0
:1010C0001092790310928603109205031092040384
:1010D00084E391E090930303809302038CE0809378
:1010E0000603CFEFC09307038BE0809308038EE0E5
:1010F000809309038FE080930A0380E180930B03C0
:1011000081E180930C0310920D0310920E03109254
:101110000F03109210031092110381E00E94B20499
:101120008091FB028C3050F591E0980F9093FB0278
:101130008093FF0290E0FC01EE0FFF1FE80FF91F04
:10114000E952FD4F88EB9BE0928381838091FB0203
:101150008C30B8F491E0980F9093FB028093FC02DE
:1011600090E0FC01EE0FFF1FE80FF91FE952FD4F61
:1011700088EB9BE092838183CF910895C093FF0217
:10118000E5CF8FEF8093FC02F7CFCF93DF93CDB7FE
:10119000DEB768970FB6F894DEBF0FBECDBF789468
:1011A00084B5826084BD84B5816084BD85B582606C
:1011B00085BD85B5816085BD80916E00816080931D
:1011C0006E00109281008091810082608093810086
:1011D0008091810081608093810080918000816096
:1011E000809380008091B10084608093B1008091F1
:1011F000B00081608093B00080917A008460809319
:101200007A0080917A00826080937A0080917A00DF
:10121000816080937A0080917A00806880937A0060
:101220001092C100E0914A02F0914B0282E080836B
:10123000E0914602F09147021082E0914802F0915D
:1012400049028FEC808310925202E0914E02F0919D
:101250004F0286E08083E0914C02F0914D02808144
:1012600080618083E0914C02F0914D028081886022
:101270008083E0914C02F0914D02808180688083F0
:10128000E0914C02F0914D0280818F7D808382E05D
:101290000E94B2046EE471E0CE0101960E94340611
:1012A00070E060E0CE0101960E946505CE010196D6
:1012B0000E9465066AE070E08FEF92E00E94AE0344
:1012C0006DE070E08CEF92E00E94AE0370E060E0B1
:1012D0008FEF92E00E944B036AE570E08CEF92E0A2
:1012E0000E944B038EE591E00E94950581E791E015
:1012F0000E949505412C512C3201439460E0A62EAA
:1013000060E0B62E21E0209386038FB7F8944091D9
:1013100036025091370260913802709139028FBFC6
:101320008091760390917703A0917803B09179032F
:10133000481B590B6A0B7B0B8091820390918303AE
:10134000B0E0A0E084179507A607B70708F020C112
:1013500010E080918003181760F4E0917C03F09115
:101360007D03E10FF11D62E080810E94A0011F5FFB
:10137000F0CF312C80918103381608F061C0E32C46
:10138000F12CE0917E03F0917F03EE0DFF1D61E0F3
:1013900080810E94A001E0917E03F0917F03EE0D19
:1013A000FF1D60E080810E947201D301C201032C05
:1013B00004C0880F991FAA1FBB1F0A94D2F74C01C3
:1013C0006C01C094D094212C80918003281608F5DC
:1013D000022D10E0E0917C03F0917D03E00FF11FFE
:1013E00080810E9449010C5F1F4F000F111FF801FF
:1013F000E65EFC4F892B41F48081918188299929EF
:10140000918380832394E0CF808191818C219D21E1
:10141000F7CFE0917E03F0917F03EE0DFF1D61E0B9
:1014200080810E94720180917E0390917F03E80E7B
:10143000F91E60E0F70180810E94A00133949ACFE9
:101440000AE113E07801F701878D90A1892B31F42F
:10145000148E2FEF3FEF368F258F11A236E0E30E6B
:10146000F11C56E5E51653E0F50669F7D12C80919D
:101470008003D81608F053C0C12C8D2C912C880CF9
:10148000991CC4018E5D9C4F4C0120918103C216B2
:1014900008F043C0F401608171810C2C02C0769584
:1014A00067950A94E2F7D29E900111242C0D311D0C
:1014B000EAE1F3E080E0458D568D2417350709F405
:1014C00090C18F5F36968A30B1F760FF24C0EAE1A1
:1014D000F3E090E080E0448D411118C0E0917A0380
:1014E000F0917B03E20FF31F408156E0589FF0011B
:1014F000599FF00D1124E65EFC4F448F368F258FE7
:1015000010A2178E61E00E94B00005C001963696C9
:101510008A30910501F7C394B8CFD394A8CF80E067
:10152000F80191A19111892F0A5F1F4FE016F10672
:10153000B9F79FB7F8944091360250913702609105
:101540003802709139029FBF40937603509377031E
:1015500060937803709379038823D1F080913B03E3
:101560008823B1F08091390390913A03019781F477
:101570008091360381110FC0A114B10409F4C2CEC9
:101580000E94A802882309F4BDCE0E940000BACEB2
:1015900010928603F1CF833209F0C4C00E94AA04DE
:1015A00089E891E00E94880540918D0350918E0357
:1015B0006091890370918A038AE392E00E943E025F
:1015C00086E491E00E94880520918D0330918E037E
:1015D000809193039091940328173907C1F4809167
:1015E000890390918A0360918F0370919003009713
:1015F00009F4F9C06115710539F4232B09F401C10F
:10160000FC01808190E0FAC00E94120FF7C068E4EC
:1016100071E089E893E00E9409060E94AA0467EE3F
:1016200071E0CE0101960E94340670E060E0CE01C8
:1016300001960E946505CE0101960E94650668EF3D
:1016400071E0CE0101960E94340661E070E0CE01A7
:1016500001960E946505CE0101960E9465060EE185
:1016600010E00E94AA041C8A1B8A1E8A1D8A188EFA
:101670001F8A4AE0BE016F5F7F4FC8010E94460C7F
:10168000BE016F5F7F4FCE0143960E94090667E05F
:1016900072E0CE0101960E9434064F89588D6B8905
:1016A0007C89CE0101960E94CB05811104C0CE0138
:1016B00001960E94F70548E050E06DE072E0CE012F
:1016C00001960E94CB05811104C0CE0101960E94B3
:1016D000F70570E060E0CE0101960E946505CE013D
:1016E00001960E946506CE0143960E9465066EE44F
:1016F00071E0CE0101960E94340670E060E0CE01F8
:1017000001960E946505CE0101960E94650668EE6D
:1017100073E080E090E00E9401020150110909F09D
:10172000A0CF2ACF8A32D9F468E471E089E893E047
:101730000E9409060E94AA046EE471E0CE0101969F
:101740000E94340670E060E0CE0101960E946505BB
:10175000CE0101960E94650686E192E08CC08983E5
:101760001A8241E050E0BE016F5F7F4F89E893E04D
:101770000E94CB0561E080E00E94530568E471E0BF
:10178000CE0101960E94340610E000E080918D03A6
:1017900090918E030817190758F441E050E06EE26B
:1017A00072E0CE0101960E94CB050F5F1F4FEECF76
:1017B0008D819E8120E130E0281B390BC90196956F
:1017C000879561E00E9453054D815E8169817A8130
:1017D00082E093E00E943E02CE0101960E946506DF
:1017E000CBCE617090CE6115710559F0232B49F075
:1017F000FB01808190E0919581959109892B09F0F9
:1018000006CF6CE971E0CE0101960E94340670E0CB
:1018100060E0CE0101960E946505CE0101960E940E
:10182000650685EA91E00E9495056AE570E08FEF14
:1018300092E00E944B0370E060E08CEF92E00E9427
:101840004B0360ED77E080E090E00E94010270E0E1
:1018500060E08FEF92E00E944B036AE570E08CEF4E
:1018600092E00E944B0368E471E089E893E00E94F3
:10187000090684EC91E00E9495057ECE89E893E00C
:101880000E9465068FE893E00C946506BB274A30FA
:1018900031F4992322F4BDE2909581959F4F0C94E9
:1018A000520CBB27FB015527AA27880F991FAA1F97
:1018B000A41710F0A41B83955051B9F7A05DAA336B
:1018C00008F0A95DA193009779F7B111B193119236
:1018D000CB010C946B0CDC01FC01672F7191772319
:1018E000E1F7329704C07C916D9370836291AE17DB
:1018F000BF07C8F30895052E97FB1EF400940E94BD
:10190000920C57FD07D00E94E40C07FC03D04EF464
:101910000C94920C50954095309521953F4F4F4F28
:101920005F4F089590958095709561957F4F8F4F8B
:101930009F4F08950E94060DA59F900DB49F900D96
:10194000A49F800D911D11240895B7FF0C949A0C4B
:101950000E949A0C821B930B08952F923F924F92F4
:101960005F926F927F928F929F92AF92BF92CF922F
:10197000DF92EF92FF920F931F93CF93DF93CDB738
:10198000DEB7CA1BDB0B0FB6F894DEBF0FBECDBFB0
:1019900009942A88398848885F846E847D848C8481
:1019A0009B84AA84B984C884DF80EE80FD800C818A
:1019B0001B81AA81B981CE0FD11D0FB6F894DEBF6D
:1019C0000FBECDBFED010895A1E21A2EAA1BBB1BCD
:1019D000FD010DC0AA1FBB1FEE1FFF1FA217B307FB
:1019E000E407F50720F0A21BB30BE40BF50B661F11
:1019F000771F881F991F1A9469F7609570958095D5
:101A000090959B01AC01BD01CF010895A29FB0014B
:101A1000B39FC001A39F700D811D1124911DB29F22
:101A2000700D811D1124911D0895991B79E004C04A
:101A3000991F961708F0961B881F7A95C9F780950D
:101A40000895EE0FFF1F0590F491E02D09940F9378
:101A50001F93CF93DF938230910510F482E090E0E2
:101A6000E0919703F091980330E020E0B0E0A0E02F
:101A7000309799F42115310509F44AC0281B390B18
:101A800024303105D8F58A819B816115710589F172
:101A9000FB0193838283FE0111C040815181028149
:101AA000138148175907E0F04817590799F4109720
:101AB00061F012960C93129713961C933296CF01F5
:101AC000DF91CF911F910F91089500939703109389
:101AD0009803F4CF2115310551F04217530738F020
:101AE000A901DB019A01BD01DF01F801C1CFEF01BE
:101AF000F9CF9093980380939703CDCFFE01E20F27
:101B0000F31F819391932250310939832883D7CFD2
:101B10002091950330919603232B41F420911A01D3
:101B200030911B0130939603209395032091180167
:101B3000309119012115310541F42DB73EB740917F
:101B40001C0150911D01241B350BE0919503F09170
:101B50009603E217F307A0F42E1B3F0B2817390753
:101B600078F0AC014E5F5F4F2417350748F04E0FF9
:101B70005F1F5093960340939503819391939FCF5A
:101B8000F0E0E0E09CCFCF93DF930097E9F0FC0119
:101B9000329713821282A0919703B0919803ED01BE
:101BA00030E020E01097A1F420813181820F931F53
:101BB00020919503309196032817390709F061C0E9
:101BC000F0939603E0939503DF91CF910895EA0196
:101BD000CE17DF07E8F54A815B819E01411551056B
:101BE000B1F7E901FB83EA8349915991C40FD51FED
:101BF000EC17FD0761F4808191810296840F951F97
:101C0000E90199838883828193819B838A83F0E0B1
:101C1000E0E012968D919C9113970097B9F52D9164
:101C20003C911197CD010296820F931F209195034D
:101C3000309196032817390739F6309751F51092ED
:101C4000980310929703B0939603A0939503BCCF8B
:101C5000D383C28340815181840F951FC817D90750
:101C600061F44E5F5F4F88819981480F591F5183FE
:101C700040838A819B81938382832115310509F0FA
:101C8000B0CFF0939803E09397039ECFFD01DC0162
:101C9000C0CF13821282D7CFB0E0A0E0E2E5FEE031
:101CA0000C94AF0C8C01009751F4CB010E94270DCE
:101CB0008C01C801CDB7DEB7E0E10C94CB0CFC0180
:101CC000E60FF71F9C0122503109E217F30708F4D1
:101CD0009DC0D901CD91DC911197C617D70798F017
:101CE000C530D10530F3CE0104978617970708F366
:101CF000C61BD70B2297C193D1936D937C93CF01D1
:101D00000E94C30DD6CF5B01AC1ABD0A4C018C0EEC
:101D10009D1EA0919703B0919803512C412CF12C5A
:101D2000E12C109731F580919503909196038815D9
:101D3000990509F05CC04616570608F058C0809116
:101D4000180190911901009741F48DB79EB7409109
:101D50001C0150911D01841B950BE817F90708F031
:101D600055C0F0939603E0939503F9017183608366
:101D7000A0CF8D919C91119712966C90129713960B
:101D80007C901397A815B90559F56C0142E0C40E73
:101D9000D11CCA14DB0420F1AC014A195B09DA0139
:101DA0001296159780F06282738251834083D90125
:101DB0006D937C93E114F10471F0D7011396FC93B9
:101DC000EE93129776CF22968C0F9D1FF901918387
:101DD0008083F301EFCFF0939803E093970369CFEB
:101DE0004816590608F42C017D01D3019ACFCB0186
:101DF0000E94270D7C01009749F0AE01B8010E94B6
:101E0000090FC8010E94C30D870153CF10E000E005
:101E100050CFFB01DC0102C001900D9241505040B7
:101E2000D8F70895FB01DC018D9101908019011014
:101E3000D9F3990B0895FB01DC0101900D9200206C
:101E4000E1F7089510E0C2E6D0E004C0FE010E9470
:101E5000210D2196C336D107C9F7F894FFCF0302AD
:101E60001213070605043132334134353642373810
:101E700039432A3023440000990380000000000009
:101E8000DE023E026B022B039C027A028E020000ED
:101E9000000082053E020B040A0400000000330229
:101EA00037023B020D0A003138393900456E74653E
:101EB000722050617373776F72643A005379737450
:101EC000656D20496E697469616C697A6564005753
:101ED000616974696E6720666F72205061737377F1
:101EE0006F72642E2E2E00456E74657265642050EC
:101EF000617373776F72643A2000556E6C6F636B19
:101F000065640050617373776F726420636F7272DF
:101F10006563742E20556E6C6F636B696E672E2E31
:101F20002E00536572766F7320726573657420742A
:101F30006F20696E697469616C20706F7369746970
:101F40006F6E732E00332054696D657320456E7477
:101F500065726564200057726F6E6720506164641B
:101F6000776F726400576169742000207365636F36
:101F70006E64730050617373776F726420696E7062
:0E1F8000757420636C65617265642E002A0022
:107E0000112484B714BE81FFF0D085E080938100F7
:107E100082E08093C00088E18093C10086E0809377
:107E2000C20080E18093C4008EE0C9D0259A86E02C
:107E300020E33CEF91E0309385002093840096BBD3
:107E4000B09BFECF1D9AA8958150A9F7CC24DD24C4
:107E500088248394B5E0AB2EA1E19A2EF3E0BF2EE7
:107E6000A2D0813461F49FD0082FAFD0023811F036
:107E7000013811F484E001C083E08DD089C08234E0
:107E800011F484E103C0853419F485E0A6D080C0E4
:107E9000853579F488D0E82EFF2485D0082F10E0AE
:107EA000102F00270E291F29000F111F8ED06801E7
:107EB0006FC0863521F484E090D080E0DECF843638
:107EC00009F040C070D06FD0082F6DD080E0C81688
:107ED00080E7D80618F4F601B7BEE895C0E0D1E017
:107EE00062D089930C17E1F7F0E0CF16F0E7DF06D8
:107EF00018F0F601B7BEE89568D007B600FCFDCFD4
:107F0000A601A0E0B1E02C9130E011968C91119780
:107F100090E0982F8827822B932B1296FA010C0160
:107F200087BEE89511244E5F5F4FF1E0A038BF0790
:107F300051F7F601A7BEE89507B600FCFDCF97BE46
:107F4000E89526C08437B1F42ED02DD0F82E2BD052
:107F50003CD0F601EF2C8F010F5F1F4F84911BD097
:107F6000EA94F801C1F70894C11CD11CFA94CF0C13
:107F7000D11C0EC0853739F428D08EE10CD085E9AC
:107F80000AD08FE07ACF813511F488E018D01DD067
:107F900080E101D065CF982F8091C00085FFFCCF94
:107FA0009093C60008958091C00087FFFCCF809118
:107FB000C00084FD01C0A8958091C6000895E0E648
:107FC000F0E098E1908380830895EDDF803219F02E
:107FD00088E0F5DFFFCF84E1DECF1F93182FE3DFCA
:107FE0001150E9F7F2DF1F91089580E0E8DFEE27F6
:047FF000FF270994CA
:027FFE00040479
:00000001FF
